{
  "_format": "hh-sol-artifact-1",
  "contractName": "GenericERC20",
  "sourceName": "contracts/GenericERC20.sol",
  "abi": [
    {
      "inputs": [
        {
          "internalType": "string",
          "name": "name",
          "type": "string"
        },
        {
          "internalType": "string",
          "name": "symbol",
          "type": "string"
        }
      ],
      "stateMutability": "nonpayable",
      "type": "constructor"
    },
    {
      "inputs": [],
      "name": "ECDSAInvalidSignature",
      "type": "error"
    },
    {
      "inputs": [
        {
          "internalType": "uint256",
          "name": "length",
          "type": "uint256"
        }
      ],
      "name": "ECDSAInvalidSignatureLength",
      "type": "error"
    },
    {
      "inputs": [
        {
          "internalType": "bytes32",
          "name": "s",
          "type": "bytes32"
        }
      ],
      "name": "ECDSAInvalidSignatureS",
      "type": "error"
    },
    {
      "inputs": [
        {
          "internalType": "address",
          "name": "spender",
          "type": "address"
        },
        {
          "internalType": "uint256",
          "name": "allowance",
          "type": "uint256"
        },
        {
          "internalType": "uint256",
          "name": "needed",
          "type": "uint256"
        }
      ],
      "name": "ERC20InsufficientAllowance",
      "type": "error"
    },
    {
      "inputs": [
        {
          "internalType": "address",
          "name": "sender",
          "type": "address"
        },
        {
          "internalType": "uint256",
          "name": "balance",
          "type": "uint256"
        },
        {
          "internalType": "uint256",
          "name": "needed",
          "type": "uint256"
        }
      ],
      "name": "ERC20InsufficientBalance",
      "type": "error"
    },
    {
      "inputs": [
        {
          "internalType": "address",
          "name": "approver",
          "type": "address"
        }
      ],
      "name": "ERC20InvalidApprover",
      "type": "error"
    },
    {
      "inputs": [
        {
          "internalType": "address",
          "name": "receiver",
          "type": "address"
        }
      ],
      "name": "ERC20InvalidReceiver",
      "type": "error"
    },
    {
      "inputs": [
        {
          "internalType": "address",
          "name": "sender",
          "type": "address"
        }
      ],
      "name": "ERC20InvalidSender",
      "type": "error"
    },
    {
      "inputs": [
        {
          "internalType": "address",
          "name": "spender",
          "type": "address"
        }
      ],
      "name": "ERC20InvalidSpender",
      "type": "error"
    },
    {
      "inputs": [
        {
          "internalType": "uint256",
          "name": "deadline",
          "type": "uint256"
        }
      ],
      "name": "ERC2612ExpiredSignature",
      "type": "error"
    },
    {
      "inputs": [
        {
          "internalType": "address",
          "name": "signer",
          "type": "address"
        },
        {
          "internalType": "address",
          "name": "owner",
          "type": "address"
        }
      ],
      "name": "ERC2612InvalidSigner",
      "type": "error"
    },
    {
      "inputs": [],
      "name": "EnforcedPause",
      "type": "error"
    },
    {
      "inputs": [],
      "name": "ExpectedPause",
      "type": "error"
    },
    {
      "inputs": [
        {
          "internalType": "address",
          "name": "account",
          "type": "address"
        },
        {
          "internalType": "uint256",
          "name": "currentNonce",
          "type": "uint256"
        }
      ],
      "name": "InvalidAccountNonce",
      "type": "error"
    },
    {
      "inputs": [],
      "name": "InvalidShortString",
      "type": "error"
    },
    {
      "inputs": [
        {
          "internalType": "address",
          "name": "owner",
          "type": "address"
        }
      ],
      "name": "OwnableInvalidOwner",
      "type": "error"
    },
    {
      "inputs": [
        {
          "internalType": "address",
          "name": "account",
          "type": "address"
        }
      ],
      "name": "OwnableUnauthorizedAccount",
      "type": "error"
    },
    {
      "inputs": [
        {
          "internalType": "string",
          "name": "str",
          "type": "string"
        }
      ],
      "name": "StringTooLong",
      "type": "error"
    },
    {
      "anonymous": false,
      "inputs": [
        {
          "indexed": true,
          "internalType": "address",
          "name": "owner",
          "type": "address"
        },
        {
          "indexed": true,
          "internalType": "address",
          "name": "spender",
          "type": "address"
        },
        {
          "indexed": false,
          "internalType": "uint256",
          "name": "value",
          "type": "uint256"
        }
      ],
      "name": "Approval",
      "type": "event"
    },
    {
      "anonymous": false,
      "inputs": [],
      "name": "EIP712DomainChanged",
      "type": "event"
    },
    {
      "anonymous": false,
      "inputs": [
        {
          "indexed": true,
          "internalType": "address",
          "name": "previousOwner",
          "type": "address"
        },
        {
          "indexed": true,
          "internalType": "address",
          "name": "newOwner",
          "type": "address"
        }
      ],
      "name": "OwnershipTransferred",
      "type": "event"
    },
    {
      "anonymous": false,
      "inputs": [
        {
          "indexed": false,
          "internalType": "address",
          "name": "account",
          "type": "address"
        }
      ],
      "name": "Paused",
      "type": "event"
    },
    {
      "anonymous": false,
      "inputs": [
        {
          "indexed": true,
          "internalType": "address",
          "name": "from",
          "type": "address"
        },
        {
          "indexed": true,
          "internalType": "address",
          "name": "to",
          "type": "address"
        },
        {
          "indexed": false,
          "internalType": "uint256",
          "name": "value",
          "type": "uint256"
        }
      ],
      "name": "Transfer",
      "type": "event"
    },
    {
      "anonymous": false,
      "inputs": [
        {
          "indexed": false,
          "internalType": "address",
          "name": "account",
          "type": "address"
        }
      ],
      "name": "Unpaused",
      "type": "event"
    },
    {
      "inputs": [],
      "name": "DOMAIN_SEPARATOR",
      "outputs": [
        {
          "internalType": "bytes32",
          "name": "",
          "type": "bytes32"
        }
      ],
      "stateMutability": "view",
      "type": "function"
    },
    {
      "inputs": [
        {
          "internalType": "address",
          "name": "owner",
          "type": "address"
        },
        {
          "internalType": "address",
          "name": "spender",
          "type": "address"
        }
      ],
      "name": "allowance",
      "outputs": [
        {
          "internalType": "uint256",
          "name": "",
          "type": "uint256"
        }
      ],
      "stateMutability": "view",
      "type": "function"
    },
    {
      "inputs": [
        {
          "internalType": "address",
          "name": "spender",
          "type": "address"
        },
        {
          "internalType": "uint256",
          "name": "value",
          "type": "uint256"
        }
      ],
      "name": "approve",
      "outputs": [
        {
          "internalType": "bool",
          "name": "",
          "type": "bool"
        }
      ],
      "stateMutability": "nonpayable",
      "type": "function"
    },
    {
      "inputs": [
        {
          "internalType": "address",
          "name": "account",
          "type": "address"
        }
      ],
      "name": "balanceOf",
      "outputs": [
        {
          "internalType": "uint256",
          "name": "",
          "type": "uint256"
        }
      ],
      "stateMutability": "view",
      "type": "function"
    },
    {
      "inputs": [
        {
          "internalType": "uint256",
          "name": "value",
          "type": "uint256"
        }
      ],
      "name": "burn",
      "outputs": [],
      "stateMutability": "nonpayable",
      "type": "function"
    },
    {
      "inputs": [
        {
          "internalType": "address",
          "name": "account",
          "type": "address"
        },
        {
          "internalType": "uint256",
          "name": "value",
          "type": "uint256"
        }
      ],
      "name": "burnFrom",
      "outputs": [],
      "stateMutability": "nonpayable",
      "type": "function"
    },
    {
      "inputs": [],
      "name": "decimals",
      "outputs": [
        {
          "internalType": "uint8",
          "name": "",
          "type": "uint8"
        }
      ],
      "stateMutability": "view",
      "type": "function"
    },
    {
      "inputs": [],
      "name": "eip712Domain",
      "outputs": [
        {
          "internalType": "bytes1",
          "name": "fields",
          "type": "bytes1"
        },
        {
          "internalType": "string",
          "name": "name",
          "type": "string"
        },
        {
          "internalType": "string",
          "name": "version",
          "type": "string"
        },
        {
          "internalType": "uint256",
          "name": "chainId",
          "type": "uint256"
        },
        {
          "internalType": "address",
          "name": "verifyingContract",
          "type": "address"
        },
        {
          "internalType": "bytes32",
          "name": "salt",
          "type": "bytes32"
        },
        {
          "internalType": "uint256[]",
          "name": "extensions",
          "type": "uint256[]"
        }
      ],
      "stateMutability": "view",
      "type": "function"
    },
    {
      "inputs": [
        {
          "internalType": "address",
          "name": "to",
          "type": "address"
        },
        {
          "internalType": "uint256",
          "name": "amount",
          "type": "uint256"
        }
      ],
      "name": "mint",
      "outputs": [],
      "stateMutability": "nonpayable",
      "type": "function"
    },
    {
      "inputs": [],
      "name": "name",
      "outputs": [
        {
          "internalType": "string",
          "name": "",
          "type": "string"
        }
      ],
      "stateMutability": "view",
      "type": "function"
    },
    {
      "inputs": [
        {
          "internalType": "address",
          "name": "owner",
          "type": "address"
        }
      ],
      "name": "nonces",
      "outputs": [
        {
          "internalType": "uint256",
          "name": "",
          "type": "uint256"
        }
      ],
      "stateMutability": "view",
      "type": "function"
    },
    {
      "inputs": [],
      "name": "owner",
      "outputs": [
        {
          "internalType": "address",
          "name": "",
          "type": "address"
        }
      ],
      "stateMutability": "view",
      "type": "function"
    },
    {
      "inputs": [],
      "name": "pause",
      "outputs": [],
      "stateMutability": "nonpayable",
      "type": "function"
    },
    {
      "inputs": [],
      "name": "paused",
      "outputs": [
        {
          "internalType": "bool",
          "name": "",
          "type": "bool"
        }
      ],
      "stateMutability": "view",
      "type": "function"
    },
    {
      "inputs": [
        {
          "internalType": "address",
          "name": "owner",
          "type": "address"
        },
        {
          "internalType": "address",
          "name": "spender",
          "type": "address"
        },
        {
          "internalType": "uint256",
          "name": "value",
          "type": "uint256"
        },
        {
          "internalType": "uint256",
          "name": "deadline",
          "type": "uint256"
        },
        {
          "internalType": "uint8",
          "name": "v",
          "type": "uint8"
        },
        {
          "internalType": "bytes32",
          "name": "r",
          "type": "bytes32"
        },
        {
          "internalType": "bytes32",
          "name": "s",
          "type": "bytes32"
        }
      ],
      "name": "permit",
      "outputs": [],
      "stateMutability": "nonpayable",
      "type": "function"
    },
    {
      "inputs": [],
      "name": "renounceOwnership",
      "outputs": [],
      "stateMutability": "nonpayable",
      "type": "function"
    },
    {
      "inputs": [],
      "name": "symbol",
      "outputs": [
        {
          "internalType": "string",
          "name": "",
          "type": "string"
        }
      ],
      "stateMutability": "view",
      "type": "function"
    },
    {
      "inputs": [],
      "name": "totalSupply",
      "outputs": [
        {
          "internalType": "uint256",
          "name": "",
          "type": "uint256"
        }
      ],
      "stateMutability": "view",
      "type": "function"
    },
    {
      "inputs": [
        {
          "internalType": "address",
          "name": "to",
          "type": "address"
        },
        {
          "internalType": "uint256",
          "name": "value",
          "type": "uint256"
        }
      ],
      "name": "transfer",
      "outputs": [
        {
          "internalType": "bool",
          "name": "",
          "type": "bool"
        }
      ],
      "stateMutability": "nonpayable",
      "type": "function"
    },
    {
      "inputs": [
        {
          "internalType": "address",
          "name": "from",
          "type": "address"
        },
        {
          "internalType": "address",
          "name": "to",
          "type": "address"
        },
        {
          "internalType": "uint256",
          "name": "value",
          "type": "uint256"
        }
      ],
      "name": "transferFrom",
      "outputs": [
        {
          "internalType": "bool",
          "name": "",
          "type": "bool"
        }
      ],
      "stateMutability": "nonpayable",
      "type": "function"
    },
    {
      "inputs": [
        {
          "internalType": "address",
          "name": "newOwner",
          "type": "address"
        }
      ],
      "name": "transferOwnership",
      "outputs": [],
      "stateMutability": "nonpayable",
      "type": "function"
    },
    {
      "inputs": [],
      "name": "unpause",
      "outputs": [],
      "stateMutability": "nonpayable",
      "type": "function"
    }
  ],
  "bytecode": "0x6101606040818152346200051a576200204e80380380916200002282866200051f565b843982019181818403126200051a5780516001600160401b0392908381116200051a57846200005391840162000568565b91602094858201518581116200051a576200006f920162000568565b815194828601868110868211176200042557835260019485875281870195603160f81b87528551828111620004255760038054918383811c931680156200050f575b86841014620004f957601f92838111620004ae575b50808684821160011462000447576000916200043b575b5060001982841b1c191690841b1781555b855191848311620004255760049687548581811c911680156200041a575b888210146200040557828111620003ba575b50869184116001146200034f5793839491849260009562000343575b50501b92600019911b1c19161783555b60055433156200032c576001600160a81b0319811633600881811b610100600160a81b03169290921760055591901c6001600160a01b03167f8be0079c531659141344cd1fd0a4f28419497f9722a3daafe3b4186f6b6457e0600080a3620001b285620005c3565b95610120968752620001c4886200076b565b95610140968752838151910120978860e05251902096610100978089524660a052855190848201927f8b73c3c69bb8fe3d512ecc4cf759cc79239f7b179b0ffacaa9a75d522b39400f84528783015260608201524660808201523060a082015260a0815260c08101928184109084111762000317578286525190206080523060c05260ff6005541662000309575060025469152d02c7e14af680000092838201809211620002f457506000917fddf252ad1be2c89b69c2b068fc378daa952ba7f163c4a11628f55a4df523b3ef9160025533835282815284832084815401905584519384523393a3519161178b9384620008c38539608051846110b0015260a0518461117c015260c05184611081015260e051846110ff01525183611125015251826105bd015251816105e70152f35b601190634e487b7160e01b6000525260246000fd5b63d93c066560e01b81529050fd5b604185634e487b7160e01b6000525260246000fd5b8451631e4fbdf760e01b8152600081860152602490fd5b0151935038806200013a565b9190601f198416928860005284886000209460005b8a89838310620003a2575050501062000387575b50505050811b0183556200014a565b01519060f884600019921b161c191690553880808062000378565b86860151895590970196948501948893500162000364565b88600052876000208380870160051c8201928a8810620003fb575b0160051c019086905b828110620003ee5750506200011e565b60008155018690620003de565b92508192620003d5565b602289634e487b7160e01b6000525260246000fd5b90607f16906200010c565b634e487b7160e01b600052604160045260246000fd5b905089015138620000dd565b60008481528881208794509190601f198416908a8e5b838310620004965750505083116200047d575b5050811b018155620000ee565b8b015160001983861b60f8161c19169055388062000470565b840151855589969094019392830192018a8e6200045d565b82600052866000208480840160051c820192898510620004ef575b0160051c019085905b828110620004e2575050620000c6565b60008155018590620004d2565b92508192620004c9565b634e487b7160e01b600052602260045260246000fd5b92607f1692620000b1565b600080fd5b601f909101601f19168101906001600160401b038211908210176200042557604052565b60005b838110620005575750506000910152565b818101518382015260200162000546565b81601f820112156200051a5780516001600160401b0381116200042557604051926200059f601f8301601f1916602001856200051f565b818452602082840101116200051a57620005c0916020808501910162000543565b90565b805160209081811015620006415750601f825111620005ff5780825192015190808310620005f057501790565b82600019910360031b1b161790565b604490620006339260405193849263305a27a960e01b84528060048501528251928391826024870152868601910162000543565b601f01601f19168101030190fd5b906001600160401b0382116200042557600654926001938481811c9116801562000760575b83821014620004f957601f811162000726575b5081601f8411600114620006ba5750928293918392600094620006ae575b50501b916000199060031b1c19161760065560ff90565b01519250388062000697565b919083601f198116600660005284600020946000905b888383106200070b5750505010620006f1575b505050811b0160065560ff90565b015160001960f88460031b161c19169055388080620006e3565b858701518855909601959485019487935090810190620006d0565b600660005284601f84600020920160051c820191601f860160051c015b8281106200075357505062000679565b6000815501859062000743565b90607f169062000666565b805160209081811015620007985750601f825111620005ff5780825192015190808310620005f057501790565b906001600160401b0382116200042557600754926001938481811c91168015620008b7575b83821014620004f957601f81116200087d575b5081601f841160011462000811575092829391839260009462000805575b50501b916000199060031b1c19161760075560ff90565b015192503880620007ee565b919083601f198116600760005284600020946000905b8883831062000862575050501062000848575b505050811b0160075560ff90565b015160001960f88460031b161c191690553880806200083a565b85870151885590960195948501948793509081019062000827565b600760005284601f84600020920160051c820191601f860160051c015b828110620008aa575050620007d0565b600081550185906200089a565b90607f1690620007bd56fe6080604081815260048036101561001557600080fd5b600092833560e01c90816306fdde0314610b4e57508063095ea7b314610b2457806318160ddd14610b0557806323b872dd14610ac8578063313ce56714610aac5780633644e51514610a885780633f4ba83a146109e857806340c10f19146108f257806342966c68146108d45780635c975abb146108b057806370a082311461086d578063715018a6146107ea57806379cc6790146107b75780637ecebe00146107735780638456cb59146106fa57806384b0196e146105a65780638da5cb5b1461056e57806395d89b4114610461578063a9059cbb14610430578063d505accf14610255578063dd62ed3e146101fb5763f2fde38b1461011557600080fd5b346101f75760206003193601126101f75761012e610ca2565b6101366111a2565b73ffffffffffffffffffffffffffffffffffffffff918282169384156101c857505074ffffffffffffffffffffffffffffffffffffffff006005549160081b167fffffffffffffffffffffff0000000000000000000000000000000000000000ff82161760055560081c167f8be0079c531659141344cd1fd0a4f28419497f9722a3daafe3b4186f6b6457e08380a380f35b908560249251917f1e4fbdf7000000000000000000000000000000000000000000000000000000008352820152fd5b8280fd5b50503461025157806003193601126102515780602092610219610ca2565b610221610cca565b73ffffffffffffffffffffffffffffffffffffffff91821683526001865283832091168252845220549051908152f35b5080fd5b508290346102515760e060031936011261025157610271610ca2565b610279610cca565b906044359260643560843560ff8116810361042c578142116103fd5773ffffffffffffffffffffffffffffffffffffffff90818516928389526008602052898920908154916001830190558a519060208201927f6e71edae12b1b97f4d1f60370fef10105fa2faae0126114a169c64845d6126c98452868d840152858a1660608401528a608084015260a083015260c082015260c0815260e0810181811067ffffffffffffffff8211176103d1578b525190206103869161037d9161033c61106a565b908c51917f190100000000000000000000000000000000000000000000000000000000000083526002830152602282015260c43591604260a43592206115d1565b9092919261166e565b1681810361039d578661039a8787876112d0565b80f35b604493508751927f4b800e460000000000000000000000000000000000000000000000000000000084528301526024820152fd5b60248b6041897f4e487b7100000000000000000000000000000000000000000000000000000000835252fd5b602483838a51917f62791302000000000000000000000000000000000000000000000000000000008352820152fd5b8680fd5b50503461025157806003193601126102515760209061045a610450610ca2565b6024359033610f21565b5160018152f35b5090346101f757826003193601126101f757805183819490845461048481610ced565b91828552602096600192886001821691826000146105265750506001146104cb575b85886104c7896104b8848a0385610d8b565b51928284938452830190610c44565b0390f35b815286935091907f8a35acfbc15ff81a39ae7d344fd709f28e8600b4aa8c65c6b64bfe7fe36bd19b5b82841061050e57505050820101816104b86104c7386104a6565b8054848a0186015288955087949093019281016104f4565b7fffffffffffffffffffffffffffffffffffffffffffffffffffffffffffffff00168882015294151560051b870190940194508593506104b892506104c791503890506104a6565b50503461025157816003193601126102515760209073ffffffffffffffffffffffffffffffffffffffff60055460081c169051908152f35b5090346101f757826003193601126101f7576105e17f00000000000000000000000000000000000000000000000000000000000000006113d6565b9261060b7f0000000000000000000000000000000000000000000000000000000000000000611511565b90825192602092602085019585871067ffffffffffffffff8811176106ce5750926020610684838896610677998b9996528686528151998a997f0f000000000000000000000000000000000000000000000000000000000000008b5260e0868c015260e08b0190610c44565b91898303908a0152610c44565b924660608801523060808801528460a088015286840360c088015251928381520193925b8281106106b757505050500390f35b8351855286955093810193928101926001016106a8565b8360416024927f4e487b7100000000000000000000000000000000000000000000000000000000835252fd5b50503461025157816003193601126102515760207f62e78cea01bee320cd4e420270b5ea74000d11b0c9f74754ebdbfc544b05a258916107386111a2565b6107406113a0565b60017fffffffffffffffffffffffffffffffffffffffffffffffffffffffffffffff00600554161760055551338152a180f35b505034610251576020600319360112610251578060209273ffffffffffffffffffffffffffffffffffffffff6107a7610ca2565b1681526008845220549051908152f35b505034610251576003193601126107e75761039a6107d3610ca2565b602435906107e2823383610dcc565b6111f6565b80fd5b83346107e757806003193601126107e7576108036111a2565b8073ffffffffffffffffffffffffffffffffffffffff6005547fffffffffffffffffffffff0000000000000000000000000000000000000000ff811660055560081c167f8be0079c531659141344cd1fd0a4f28419497f9722a3daafe3b4186f6b6457e08280a380f35b505034610251576020600319360112610251578060209273ffffffffffffffffffffffffffffffffffffffff6108a1610ca2565b16815280845220549051908152f35b50503461025157816003193601126102515760209060ff6005541690519015158152f35b8382346102515760206003193601126102515761039a9035336111f6565b5090346101f757806003193601126101f75761090c610ca2565b9073ffffffffffffffffffffffffffffffffffffffff6024359261092e6111a2565b169283156109ba5761093e6113a0565b6002549083820180921161098e575084927fddf252ad1be2c89b69c2b068fc378daa952ba7f163c4a11628f55a4df523b3ef9260209260025585855284835280852082815401905551908152a380f35b8560116024927f4e487b7100000000000000000000000000000000000000000000000000000000835252fd5b8460249251917fec442f05000000000000000000000000000000000000000000000000000000008352820152fd5b50346101f757826003193601126101f757610a016111a2565b6005549060ff821615610a6157507f5db9ee0a495bf2e6ff9c91a7834c1ba4fdd244a5e8aa4e537bd38aeae4b073aa917fffffffffffffffffffffffffffffffffffffffffffffffffffffffffffffff006020921660055551338152a180f35b82517f8dfc202b000000000000000000000000000000000000000000000000000000008152fd5b505034610251578160031936011261025157602090610aa561106a565b9051908152f35b5050346102515781600319360112610251576020905160128152f35b5050346102515760606003193601126102515760209061045a610ae9610ca2565b610af1610cca565b60443591610b00833383610dcc565b610f21565b5050346102515781600319360112610251576020906002549051908152f35b50503461025157806003193601126102515760209061045a610b44610ca2565b60243590336112d0565b8484346102515781600319360112610251578282600354610b6e81610ced565b9081845260209560019187600182169182600014610bff575050600114610ba3575b5050506104c792916104b8910385610d8b565b9190869350600383527fc2575a0e9e593c00f959f8c92f12db2869c3395a3b0502d05e2516446f71f85b5b828410610be757505050820101816104b86104c7610b90565b8054848a018601528895508794909301928101610bce565b7fffffffffffffffffffffffffffffffffffffffffffffffffffffffffffffff00168782015293151560051b860190930193508492506104b891506104c79050610b90565b919082519283825260005b848110610c8e5750507fffffffffffffffffffffffffffffffffffffffffffffffffffffffffffffffe0601f8460006020809697860101520116010190565b602081830181015184830182015201610c4f565b6004359073ffffffffffffffffffffffffffffffffffffffff82168203610cc557565b600080fd5b6024359073ffffffffffffffffffffffffffffffffffffffff82168203610cc557565b90600182811c92168015610d36575b6020831014610d0757565b7f4e487b7100000000000000000000000000000000000000000000000000000000600052602260045260246000fd5b91607f1691610cfc565b6040810190811067ffffffffffffffff821117610d5c57604052565b7f4e487b7100000000000000000000000000000000000000000000000000000000600052604160045260246000fd5b90601f7fffffffffffffffffffffffffffffffffffffffffffffffffffffffffffffffe0910116810190811067ffffffffffffffff821117610d5c57604052565b9173ffffffffffffffffffffffffffffffffffffffff8093169160009383855260016020526040938486209183169182875260205284862054927fffffffffffffffffffffffffffffffffffffffffffffffffffffffffffffffff8403610e37575b50505050505050565b848410610ecb57508015610e9b578115610e6b57855260016020528385209085526020520391205538808080808080610e2e565b6024868651907f94280d620000000000000000000000000000000000000000000000000000000082526004820152fd5b6024868651907fe602df050000000000000000000000000000000000000000000000000000000082526004820152fd5b85517ffb8f41b200000000000000000000000000000000000000000000000000000000815273ffffffffffffffffffffffffffffffffffffffff9190911660048201526024810184905260448101859052606490fd5b9173ffffffffffffffffffffffffffffffffffffffff808416928315611039571692831561100857610f516113a0565b60009083825281602052604082205490838210610fb0575091604082827fddf252ad1be2c89b69c2b068fc378daa952ba7f163c4a11628f55a4df523b3ef958760209652828652038282205586815220818154019055604051908152a3565b6040517fe450d38c00000000000000000000000000000000000000000000000000000000815273ffffffffffffffffffffffffffffffffffffffff919091166004820152602481019190915260448101839052606490fd5b60246040517fec442f0500000000000000000000000000000000000000000000000000000000815260006004820152fd5b60246040517f96c6fd1e00000000000000000000000000000000000000000000000000000000815260006004820152fd5b73ffffffffffffffffffffffffffffffffffffffff7f000000000000000000000000000000000000000000000000000000000000000016301480611179575b156110d2577f000000000000000000000000000000000000000000000000000000000000000090565b60405160208101907f8b73c3c69bb8fe3d512ecc4cf759cc79239f7b179b0ffacaa9a75d522b39400f82527f000000000000000000000000000000000000000000000000000000000000000060408201527f000000000000000000000000000000000000000000000000000000000000000060608201524660808201523060a082015260a0815260c0810181811067ffffffffffffffff821117610d5c5760405251902090565b507f000000000000000000000000000000000000000000000000000000000000000046146110a9565b73ffffffffffffffffffffffffffffffffffffffff60055460081c1633036111c657565b60246040517f118cdaa7000000000000000000000000000000000000000000000000000000008152336004820152fd5b9073ffffffffffffffffffffffffffffffffffffffff82169081156110395761121d6113a0565b600092828452836020526040842054908282106112785750817fddf252ad1be2c89b69c2b068fc378daa952ba7f163c4a11628f55a4df523b3ef926020928587528684520360408620558060025403600255604051908152a3565b6040517fe450d38c00000000000000000000000000000000000000000000000000000000815273ffffffffffffffffffffffffffffffffffffffff919091166004820152602481019190915260448101829052606490fd5b73ffffffffffffffffffffffffffffffffffffffff80911691821561136f571691821561133e5760207f8c5be1e5ebec7d5bd14f71427d1e84f3dd0314c0f7b2291e5b200ac8c7c3b925918360005260018252604060002085600052825280604060002055604051908152a3565b60246040517f94280d6200000000000000000000000000000000000000000000000000000000815260006004820152fd5b60246040517fe602df0500000000000000000000000000000000000000000000000000000000815260006004820152fd5b60ff600554166113ac57565b60046040517fd93c0665000000000000000000000000000000000000000000000000000000008152fd5b60ff811461142c5760ff811690601f821161140257604051916113f883610d40565b8252602082015290565b60046040517fb3512b0c000000000000000000000000000000000000000000000000000000008152fd5b5060405160065481600061143f83610ced565b808352926020906001908181169081156114ce575060011461146d575b505061146a92500382610d8b565b90565b91509260066000527ff652222313e28459528d920b65115c16c04f3efc82aaedc97be59f3f377c0d3f936000925b8284106114b6575061146a945050508101602001388061145c565b8554878501830152948501948694509281019261149b565b90506020935061146a9592507fffffffffffffffffffffffffffffffffffffffffffffffffffffffffffffff0091501682840152151560051b820101388061145c565b60ff81146115335760ff811690601f821161140257604051916113f883610d40565b5060405160075481600061154683610ced565b808352926020906001908181169081156114ce575060011461157057505061146a92500382610d8b565b91509260076000527fa66cc928b5edb82af9bd49922954155ab7b0942694bea4ce44661d9a8736c688936000925b8284106115b9575061146a945050508101602001388061145c565b8554878501830152948501948694509281019261159e565b91907f7fffffffffffffffffffffffffffffff5d576e7357a4501ddfe92f46681b20a0841161166257926020929160ff608095604051948552168484015260408301526060820152600092839182805260015afa1561165657805173ffffffffffffffffffffffffffffffffffffffff81161561164d57918190565b50809160019190565b604051903d90823e3d90fd5b50505060009160039190565b60048110156117265780611680575050565b600181036116b25760046040517ff645eedf000000000000000000000000000000000000000000000000000000008152fd5b600281036116eb57602482604051907ffce698f70000000000000000000000000000000000000000000000000000000082526004820152fd5b6003146116f55750565b602490604051907fd78bce0c0000000000000000000000000000000000000000000000000000000082526004820152fd5b7f4e487b7100000000000000000000000000000000000000000000000000000000600052602160045260246000fdfea26469706673582212206cb6cd6b21a65b46eef09074fa46df99ff7e95de1dd14ccda2b688c0b2a6cbc164736f6c63430008180033",
  "linkReferences": {},
  "deployedLinkReferences": {}
}